{
  "contractName": "Crowdfunding",
  "abi": [
    {
      "anonymous": false,
      "inputs": [
        {
          "indexed": false,
          "internalType": "uint256",
          "name": "campaignId",
          "type": "uint256"
        },
        {
          "indexed": false,
          "internalType": "address",
          "name": "creator",
          "type": "address"
        },
        {
          "indexed": false,
          "internalType": "uint256",
          "name": "goal",
          "type": "uint256"
        },
        {
          "indexed": false,
          "internalType": "uint256",
          "name": "deadline",
          "type": "uint256"
        },
        {
          "indexed": false,
          "internalType": "string",
          "name": "description",
          "type": "string"
        }
      ],
      "name": "CampaignCreated",
      "type": "event"
    },
    {
      "anonymous": false,
      "inputs": [
        {
          "indexed": false,
          "internalType": "uint256",
          "name": "campaignId",
          "type": "uint256"
        },
        {
          "indexed": false,
          "internalType": "address",
          "name": "donor",
          "type": "address"
        },
        {
          "indexed": false,
          "internalType": "uint256",
          "name": "amount",
          "type": "uint256"
        }
      ],
      "name": "DonationReceived",
      "type": "event"
    },
    {
      "inputs": [],
      "name": "campaignCount",
      "outputs": [
        {
          "internalType": "uint256",
          "name": "",
          "type": "uint256"
        }
      ],
      "stateMutability": "view",
      "type": "function",
      "constant": true
    },
    {
      "inputs": [
        {
          "internalType": "uint256",
          "name": "",
          "type": "uint256"
        }
      ],
      "name": "campaigns",
      "outputs": [
        {
          "internalType": "address payable",
          "name": "creator",
          "type": "address"
        },
        {
          "internalType": "uint256",
          "name": "goal",
          "type": "uint256"
        },
        {
          "internalType": "uint256",
          "name": "raisedAmount",
          "type": "uint256"
        },
        {
          "internalType": "uint256",
          "name": "deadline",
          "type": "uint256"
        },
        {
          "internalType": "bool",
          "name": "isFunded",
          "type": "bool"
        },
        {
          "internalType": "string",
          "name": "description",
          "type": "string"
        }
      ],
      "stateMutability": "view",
      "type": "function",
      "constant": true
    },
    {
      "inputs": [
        {
          "internalType": "uint256",
          "name": "_goal",
          "type": "uint256"
        },
        {
          "internalType": "uint256",
          "name": "_durationInDays",
          "type": "uint256"
        },
        {
          "internalType": "string",
          "name": "_description",
          "type": "string"
        }
      ],
      "name": "createCampaign",
      "outputs": [],
      "stateMutability": "nonpayable",
      "type": "function"
    },
    {
      "inputs": [
        {
          "internalType": "uint256",
          "name": "_campaignId",
          "type": "uint256"
        }
      ],
      "name": "donate",
      "outputs": [],
      "stateMutability": "payable",
      "type": "function",
      "payable": true
    },
    {
      "inputs": [
        {
          "internalType": "uint256",
          "name": "_campaignId",
          "type": "uint256"
        }
      ],
      "name": "getCampaignDetails",
      "outputs": [
        {
          "internalType": "address",
          "name": "",
          "type": "address"
        },
        {
          "internalType": "uint256",
          "name": "",
          "type": "uint256"
        },
        {
          "internalType": "uint256",
          "name": "",
          "type": "uint256"
        },
        {
          "internalType": "uint256",
          "name": "",
          "type": "uint256"
        },
        {
          "internalType": "bool",
          "name": "",
          "type": "bool"
        },
        {
          "internalType": "string",
          "name": "",
          "type": "string"
        }
      ],
      "stateMutability": "view",
      "type": "function",
      "constant": true
    }
  ],
  "bytecode": "0x608060405234801561001057600080fd5b506110a2806100206000396000f3fe60806040526004361061004a5760003560e01c8063141961bc1461004f5780637274e30d1461009157806391cbf44e146100bc578063d993de62146100e5578063f14faf6f14610127575b600080fd5b34801561005b57600080fd5b5061007660048036038101906100719190610831565b610143565b60405161008896959493929190610962565b60405180910390f35b34801561009d57600080fd5b506100a6610234565b6040516100b391906109ca565b60405180910390f35b3480156100c857600080fd5b506100e360048036038101906100de9190610b1a565b61023a565b005b3480156100f157600080fd5b5061010c60048036038101906101079190610831565b610494565b60405161011e96959493929190610baa565b60405180910390f35b610141600480360381019061013c9190610831565b6105a0565b005b60006020528060005260406000206000915090508060000160009054906101000a900473ffffffffffffffffffffffffffffffffffffffff16908060010154908060020154908060030154908060040160009054906101000a900460ff16908060050180546101b190610c41565b80601f01602080910402602001604051908101604052809291908181526020018280546101dd90610c41565b801561022a5780601f106101ff5761010080835404028352916020019161022a565b820191906000526020600020905b81548152906001019060200180831161020d57829003601f168201915b5050505050905086565b60015481565b6000831161027d576040517f08c379a000000000000000000000000000000000000000000000000000000000815260040161027490610cbe565b60405180910390fd5b600082116102c0576040517f08c379a00000000000000000000000000000000000000000000000000000000081526004016102b790610d50565b60405180910390fd5b6000815111610304576040517f08c379a00000000000000000000000000000000000000000000000000000000081526004016102fb90610dbc565b60405180910390fd5b6001600081548092919061031790610e0b565b91905055506040518060c001604052803373ffffffffffffffffffffffffffffffffffffffff16815260200184815260200160008152602001620151808461035f9190610e53565b4261036a9190610ead565b815260200160001515815260200182815250600080600154815260200190815260200160002060008201518160000160006101000a81548173ffffffffffffffffffffffffffffffffffffffff021916908373ffffffffffffffffffffffffffffffffffffffff16021790555060208201518160010155604082015181600201556060820151816003015560808201518160040160006101000a81548160ff02191690831515021790555060a0820151816005019080519060200190610431929190610744565b509050507f2e64da7e06e88ccd84d69eccb21119ca81e40e5648611e89edfe888c8fa625976001543385620151808661046a9190610e53565b426104759190610ead565b85604051610487959493929190610f03565b60405180910390a1505050565b60008060008060006060600080600089815260200190815260200160002090508060000160009054906101000a900473ffffffffffffffffffffffffffffffffffffffff168160010154826002015483600301548460040160009054906101000a900460ff168560050180805461050a90610c41565b80601f016020809104026020016040519081016040528092919081815260200182805461053690610c41565b80156105835780601f1061055857610100808354040283529160200191610583565b820191906000526020600020905b81548152906001019060200180831161056657829003601f168201915b505050505090509650965096509650965096505091939550919395565b60008060008381526020019081526020016000209050806003015442106105fc576040517f08c379a00000000000000000000000000000000000000000000000000000000081526004016105f390610fa9565b60405180910390fd5b8060040160009054906101000a900460ff161561064e576040517f08c379a000000000000000000000000000000000000000000000000000000000815260040161064590611015565b60405180910390fd5b348160020160008282546106629190610ead565b925050819055507f0b5b4c52969ff7329ecf7ee536409fda87812b15a8622bc6e8cdeab3aee14a2682333460405161069c93929190611035565b60405180910390a180600101548160020154106107405760018160040160006101000a81548160ff0219169083151502179055508060000160009054906101000a900473ffffffffffffffffffffffffffffffffffffffff1673ffffffffffffffffffffffffffffffffffffffff166108fc82600201549081150290604051600060405180830381858888f1935050505015801561073e573d6000803e3d6000fd5b505b5050565b82805461075090610c41565b90600052602060002090601f01602090048101928261077257600085556107b9565b82601f1061078b57805160ff19168380011785556107b9565b828001600101855582156107b9579182015b828111156107b857825182559160200191906001019061079d565b5b5090506107c691906107ca565b5090565b5b808211156107e35760008160009055506001016107cb565b5090565b6000604051905090565b600080fd5b600080fd5b6000819050919050565b61080e816107fb565b811461081957600080fd5b50565b60008135905061082b81610805565b92915050565b600060208284031215610847576108466107f1565b5b60006108558482850161081c565b91505092915050565b600073ffffffffffffffffffffffffffffffffffffffff82169050919050565b60006108898261085e565b9050919050565b6108998161087e565b82525050565b6108a8816107fb565b82525050565b60008115159050919050565b6108c3816108ae565b82525050565b600081519050919050565b600082825260208201905092915050565b60005b838110156109035780820151818401526020810190506108e8565b83811115610912576000848401525b50505050565b6000601f19601f8301169050919050565b6000610934826108c9565b61093e81856108d4565b935061094e8185602086016108e5565b61095781610918565b840191505092915050565b600060c0820190506109776000830189610890565b610984602083018861089f565b610991604083018761089f565b61099e606083018661089f565b6109ab60808301856108ba565b81810360a08301526109bd8184610929565b9050979650505050505050565b60006020820190506109df600083018461089f565b92915050565b600080fd5b600080fd5b7f4e487b7100000000000000000000000000000000000000000000000000000000600052604160045260246000fd5b610a2782610918565b810181811067ffffffffffffffff82111715610a4657610a456109ef565b5b80604052505050565b6000610a596107e7565b9050610a658282610a1e565b919050565b600067ffffffffffffffff821115610a8557610a846109ef565b5b610a8e82610918565b9050602081019050919050565b82818337600083830152505050565b6000610abd610ab884610a6a565b610a4f565b905082815260208101848484011115610ad957610ad86109ea565b5b610ae4848285610a9b565b509392505050565b600082601f830112610b0157610b006109e5565b5b8135610b11848260208601610aaa565b91505092915050565b600080600060608486031215610b3357610b326107f1565b5b6000610b418682870161081c565b9350506020610b528682870161081c565b925050604084013567ffffffffffffffff811115610b7357610b726107f6565b5b610b7f86828701610aec565b9150509250925092565b6000610b948261085e565b9050919050565b610ba481610b89565b82525050565b600060c082019050610bbf6000830189610b9b565b610bcc602083018861089f565b610bd9604083018761089f565b610be6606083018661089f565b610bf360808301856108ba565b81810360a0830152610c058184610929565b9050979650505050505050565b7f4e487b7100000000000000000000000000000000000000000000000000000000600052602260045260246000fd5b60006002820490506001821680610c5957607f821691505b602082108103610c6c57610c6b610c12565b5b50919050565b7f476f616c206d7573742062652067726561746572207468616e20300000000000600082015250565b6000610ca8601b836108d4565b9150610cb382610c72565b602082019050919050565b60006020820190508181036000830152610cd781610c9b565b9050919050565b7f4475726174696f6e206d7573742062652067726561746572207468616e20302060008201527f6461797300000000000000000000000000000000000000000000000000000000602082015250565b6000610d3a6024836108d4565b9150610d4582610cde565b604082019050919050565b60006020820190508181036000830152610d6981610d2d565b9050919050565b7f4465736372697074696f6e206d757374206e6f7420626520656d707479000000600082015250565b6000610da6601d836108d4565b9150610db182610d70565b602082019050919050565b60006020820190508181036000830152610dd581610d99565b9050919050565b7f4e487b7100000000000000000000000000000000000000000000000000000000600052601160045260246000fd5b6000610e16826107fb565b91507fffffffffffffffffffffffffffffffffffffffffffffffffffffffffffffffff8203610e4857610e47610ddc565b5b600182019050919050565b6000610e5e826107fb565b9150610e69836107fb565b9250817fffffffffffffffffffffffffffffffffffffffffffffffffffffffffffffffff0483118215151615610ea257610ea1610ddc565b5b828202905092915050565b6000610eb8826107fb565b9150610ec3836107fb565b9250827fffffffffffffffffffffffffffffffffffffffffffffffffffffffffffffffff03821115610ef857610ef7610ddc565b5b828201905092915050565b600060a082019050610f18600083018861089f565b610f256020830187610b9b565b610f32604083018661089f565b610f3f606083018561089f565b8181036080830152610f518184610929565b90509695505050505050565b7f43616d706169676e2068617320656e6465640000000000000000000000000000600082015250565b6000610f936012836108d4565b9150610f9e82610f5d565b602082019050919050565b60006020820190508181036000830152610fc281610f86565b9050919050565b7f43616d706169676e20697320616c72656164792066756e646564000000000000600082015250565b6000610fff601a836108d4565b915061100a82610fc9565b602082019050919050565b6000602082019050818103600083015261102e81610ff2565b9050919050565b600060608201905061104a600083018661089f565b6110576020830185610b9b565b611064604083018461089f565b94935050505056fea26469706673582212207c41ce048cbcce216d429bb1e51ee551c11243cf4a2c8952d0cc6024e5b4fe9e64736f6c634300080d0033",
  "immutableReferences": {},
  "source": "// SPDX-License-Identifier: MIT\r\npragma solidity ^0.8.13;\r\n\r\ncontract Crowdfunding {\r\n    struct Campaign {\r\n        address payable creator;\r\n        uint goal;\r\n        uint raisedAmount;\r\n        uint deadline;\r\n        bool isFunded;\r\n        string description;\r\n    }\r\n\r\n    mapping(uint => Campaign) public campaigns;\r\n    uint public campaignCount;\r\n\r\n    event CampaignCreated(\r\n        uint campaignId,\r\n        address creator,\r\n        uint goal,\r\n        uint deadline,\r\n        string description\r\n    );\r\n    event DonationReceived(uint campaignId, address donor, uint amount);\r\n\r\n    function createCampaign(uint _goal, uint _durationInDays, string memory _description) public {\r\n        require(_goal > 0, \"Goal must be greater than 0\");\r\n        require(_durationInDays > 0, \"Duration must be greater than 0 days\");\r\n        require(bytes(_description).length > 0, \"Description must not be empty\");\r\n\r\n        campaignCount++;\r\n        campaigns[campaignCount] = Campaign({\r\n            creator: payable(msg.sender),\r\n            goal: _goal,\r\n            raisedAmount: 0,\r\n            deadline: block.timestamp + (_durationInDays * 1 days),\r\n            isFunded: false,\r\n            description: _description\r\n        });\r\n\r\n        emit CampaignCreated(\r\n            campaignCount,\r\n            msg.sender,\r\n            _goal,\r\n            block.timestamp + (_durationInDays * 1 days),\r\n            _description\r\n        );\r\n    }\r\n\r\n    function donate(uint _campaignId) public payable {\r\n        Campaign storage campaign = campaigns[_campaignId];\r\n        require(block.timestamp < campaign.deadline, \"Campaign has ended\");\r\n        require(!campaign.isFunded, \"Campaign is already funded\");\r\n\r\n        campaign.raisedAmount += msg.value;\r\n\r\n        emit DonationReceived(_campaignId, msg.sender, msg.value);\r\n\r\n        if (campaign.raisedAmount >= campaign.goal) {\r\n            campaign.isFunded = true;\r\n            campaign.creator.transfer(campaign.raisedAmount);\r\n        }\r\n    }\r\n\r\n    function getCampaignDetails(\r\n        uint _campaignId\r\n    ) public view returns (address, uint, uint, uint, bool, string memory) {\r\n        Campaign storage campaign = campaigns[_campaignId];\r\n        return (\r\n            campaign.creator,\r\n            campaign.goal,\r\n            campaign.raisedAmount,\r\n            campaign.deadline,\r\n            campaign.isFunded,\r\n            campaign.description\r\n        );\r\n    }\r\n\r\n}\r\n\r\n",
  "sourcePath": "C:\\Users\\morit\\Desktop\\Projects\\DApp CrowdFunding\\SmartContract\\contracts\\Crowdfunding.sol",
  "compiler": {
    "name": "solc",
    "version": "0.8.13+commit.abaa5c0e.Emscripten.clang"
  },
  "schemaVersion": "3.4.16",
  "updatedAt": "2024-07-15T13:41:17.916Z",
  "networkType": "ethereum",
  "devdoc": {
    "kind": "dev",
    "methods": {},
    "version": 1
  },
  "userdoc": {
    "kind": "user",
    "methods": {},
    "version": 1
  }
}